{
  "contractName": "MPCToken",
  "abi": [
    {
      "inputs": [
        {
          "internalType": "uint256",
          "name": "cap_",
          "type": "uint256"
        }
      ],
      "stateMutability": "nonpayable",
      "type": "constructor"
    },
    {
      "anonymous": false,
      "inputs": [
        {
          "indexed": true,
          "internalType": "address",
          "name": "owner",
          "type": "address"
        },
        {
          "indexed": true,
          "internalType": "address",
          "name": "spender",
          "type": "address"
        },
        {
          "indexed": false,
          "internalType": "uint256",
          "name": "value",
          "type": "uint256"
        }
      ],
      "name": "Approval",
      "type": "event"
    },
    {
      "anonymous": false,
      "inputs": [
        {
          "indexed": false,
          "internalType": "address",
          "name": "account",
          "type": "address"
        }
      ],
      "name": "Paused",
      "type": "event"
    },
    {
      "anonymous": false,
      "inputs": [
        {
          "indexed": true,
          "internalType": "bytes32",
          "name": "role",
          "type": "bytes32"
        },
        {
          "indexed": true,
          "internalType": "bytes32",
          "name": "previousAdminRole",
          "type": "bytes32"
        },
        {
          "indexed": true,
          "internalType": "bytes32",
          "name": "newAdminRole",
          "type": "bytes32"
        }
      ],
      "name": "RoleAdminChanged",
      "type": "event"
    },
    {
      "anonymous": false,
      "inputs": [
        {
          "indexed": true,
          "internalType": "bytes32",
          "name": "role",
          "type": "bytes32"
        },
        {
          "indexed": true,
          "internalType": "address",
          "name": "account",
          "type": "address"
        },
        {
          "indexed": true,
          "internalType": "address",
          "name": "sender",
          "type": "address"
        }
      ],
      "name": "RoleGranted",
      "type": "event"
    },
    {
      "anonymous": false,
      "inputs": [
        {
          "indexed": true,
          "internalType": "bytes32",
          "name": "role",
          "type": "bytes32"
        },
        {
          "indexed": true,
          "internalType": "address",
          "name": "account",
          "type": "address"
        },
        {
          "indexed": true,
          "internalType": "address",
          "name": "sender",
          "type": "address"
        }
      ],
      "name": "RoleRevoked",
      "type": "event"
    },
    {
      "anonymous": false,
      "inputs": [
        {
          "indexed": true,
          "internalType": "address",
          "name": "from",
          "type": "address"
        },
        {
          "indexed": true,
          "internalType": "address",
          "name": "to",
          "type": "address"
        },
        {
          "indexed": false,
          "internalType": "uint256",
          "name": "value",
          "type": "uint256"
        }
      ],
      "name": "Transfer",
      "type": "event"
    },
    {
      "anonymous": false,
      "inputs": [
        {
          "indexed": false,
          "internalType": "address",
          "name": "account",
          "type": "address"
        }
      ],
      "name": "Unpaused",
      "type": "event"
    },
    {
      "inputs": [],
      "name": "CAPSETTER_ROLE",
      "outputs": [
        {
          "internalType": "bytes32",
          "name": "",
          "type": "bytes32"
        }
      ],
      "stateMutability": "view",
      "type": "function",
      "constant": true
    },
    {
      "inputs": [],
      "name": "DEFAULT_ADMIN_ROLE",
      "outputs": [
        {
          "internalType": "bytes32",
          "name": "",
          "type": "bytes32"
        }
      ],
      "stateMutability": "view",
      "type": "function",
      "constant": true
    },
    {
      "inputs": [],
      "name": "MINTER_ROLE",
      "outputs": [
        {
          "internalType": "bytes32",
          "name": "",
          "type": "bytes32"
        }
      ],
      "stateMutability": "view",
      "type": "function",
      "constant": true
    },
    {
      "inputs": [],
      "name": "PAUSER_ROLE",
      "outputs": [
        {
          "internalType": "bytes32",
          "name": "",
          "type": "bytes32"
        }
      ],
      "stateMutability": "view",
      "type": "function",
      "constant": true
    },
    {
      "inputs": [
        {
          "internalType": "address",
          "name": "owner",
          "type": "address"
        },
        {
          "internalType": "address",
          "name": "spender",
          "type": "address"
        }
      ],
      "name": "allowance",
      "outputs": [
        {
          "internalType": "uint256",
          "name": "",
          "type": "uint256"
        }
      ],
      "stateMutability": "view",
      "type": "function",
      "constant": true
    },
    {
      "inputs": [
        {
          "internalType": "address",
          "name": "spender",
          "type": "address"
        },
        {
          "internalType": "uint256",
          "name": "amount",
          "type": "uint256"
        }
      ],
      "name": "approve",
      "outputs": [
        {
          "internalType": "bool",
          "name": "",
          "type": "bool"
        }
      ],
      "stateMutability": "nonpayable",
      "type": "function"
    },
    {
      "inputs": [
        {
          "internalType": "address",
          "name": "account",
          "type": "address"
        }
      ],
      "name": "balanceOf",
      "outputs": [
        {
          "internalType": "uint256",
          "name": "",
          "type": "uint256"
        }
      ],
      "stateMutability": "view",
      "type": "function",
      "constant": true
    },
    {
      "inputs": [
        {
          "internalType": "uint256",
          "name": "amount",
          "type": "uint256"
        }
      ],
      "name": "burn",
      "outputs": [],
      "stateMutability": "nonpayable",
      "type": "function"
    },
    {
      "inputs": [
        {
          "internalType": "address",
          "name": "account",
          "type": "address"
        },
        {
          "internalType": "uint256",
          "name": "amount",
          "type": "uint256"
        }
      ],
      "name": "burnFrom",
      "outputs": [],
      "stateMutability": "nonpayable",
      "type": "function"
    },
    {
      "inputs": [],
      "name": "decimals",
      "outputs": [
        {
          "internalType": "uint8",
          "name": "",
          "type": "uint8"
        }
      ],
      "stateMutability": "view",
      "type": "function",
      "constant": true
    },
    {
      "inputs": [
        {
          "internalType": "address",
          "name": "spender",
          "type": "address"
        },
        {
          "internalType": "uint256",
          "name": "subtractedValue",
          "type": "uint256"
        }
      ],
      "name": "decreaseAllowance",
      "outputs": [
        {
          "internalType": "bool",
          "name": "",
          "type": "bool"
        }
      ],
      "stateMutability": "nonpayable",
      "type": "function"
    },
    {
      "inputs": [
        {
          "internalType": "bytes32",
          "name": "role",
          "type": "bytes32"
        }
      ],
      "name": "getRoleAdmin",
      "outputs": [
        {
          "internalType": "bytes32",
          "name": "",
          "type": "bytes32"
        }
      ],
      "stateMutability": "view",
      "type": "function",
      "constant": true
    },
    {
      "inputs": [
        {
          "internalType": "bytes32",
          "name": "role",
          "type": "bytes32"
        },
        {
          "internalType": "uint256",
          "name": "index",
          "type": "uint256"
        }
      ],
      "name": "getRoleMember",
      "outputs": [
        {
          "internalType": "address",
          "name": "",
          "type": "address"
        }
      ],
      "stateMutability": "view",
      "type": "function",
      "constant": true
    },
    {
      "inputs": [
        {
          "internalType": "bytes32",
          "name": "role",
          "type": "bytes32"
        }
      ],
      "name": "getRoleMemberCount",
      "outputs": [
        {
          "internalType": "uint256",
          "name": "",
          "type": "uint256"
        }
      ],
      "stateMutability": "view",
      "type": "function",
      "constant": true
    },
    {
      "inputs": [
        {
          "internalType": "bytes32",
          "name": "role",
          "type": "bytes32"
        },
        {
          "internalType": "address",
          "name": "account",
          "type": "address"
        }
      ],
      "name": "grantRole",
      "outputs": [],
      "stateMutability": "nonpayable",
      "type": "function"
    },
    {
      "inputs": [
        {
          "internalType": "bytes32",
          "name": "role",
          "type": "bytes32"
        },
        {
          "internalType": "address",
          "name": "account",
          "type": "address"
        }
      ],
      "name": "hasRole",
      "outputs": [
        {
          "internalType": "bool",
          "name": "",
          "type": "bool"
        }
      ],
      "stateMutability": "view",
      "type": "function",
      "constant": true
    },
    {
      "inputs": [
        {
          "internalType": "address",
          "name": "spender",
          "type": "address"
        },
        {
          "internalType": "uint256",
          "name": "addedValue",
          "type": "uint256"
        }
      ],
      "name": "increaseAllowance",
      "outputs": [
        {
          "internalType": "bool",
          "name": "",
          "type": "bool"
        }
      ],
      "stateMutability": "nonpayable",
      "type": "function"
    },
    {
      "inputs": [
        {
          "internalType": "address",
          "name": "to",
          "type": "address"
        },
        {
          "internalType": "uint256",
          "name": "amount",
          "type": "uint256"
        }
      ],
      "name": "mint",
      "outputs": [],
      "stateMutability": "nonpayable",
      "type": "function"
    },
    {
      "inputs": [],
      "name": "name",
      "outputs": [
        {
          "internalType": "string",
          "name": "",
          "type": "string"
        }
      ],
      "stateMutability": "view",
      "type": "function",
      "constant": true
    },
    {
      "inputs": [],
      "name": "pause",
      "outputs": [],
      "stateMutability": "nonpayable",
      "type": "function"
    },
    {
      "inputs": [],
      "name": "paused",
      "outputs": [
        {
          "internalType": "bool",
          "name": "",
          "type": "bool"
        }
      ],
      "stateMutability": "view",
      "type": "function",
      "constant": true
    },
    {
      "inputs": [
        {
          "internalType": "bytes32",
          "name": "role",
          "type": "bytes32"
        },
        {
          "internalType": "address",
          "name": "account",
          "type": "address"
        }
      ],
      "name": "renounceRole",
      "outputs": [],
      "stateMutability": "nonpayable",
      "type": "function"
    },
    {
      "inputs": [
        {
          "internalType": "bytes32",
          "name": "role",
          "type": "bytes32"
        },
        {
          "internalType": "address",
          "name": "account",
          "type": "address"
        }
      ],
      "name": "revokeRole",
      "outputs": [],
      "stateMutability": "nonpayable",
      "type": "function"
    },
    {
      "inputs": [
        {
          "internalType": "bytes4",
          "name": "interfaceId",
          "type": "bytes4"
        }
      ],
      "name": "supportsInterface",
      "outputs": [
        {
          "internalType": "bool",
          "name": "",
          "type": "bool"
        }
      ],
      "stateMutability": "view",
      "type": "function",
      "constant": true
    },
    {
      "inputs": [],
      "name": "symbol",
      "outputs": [
        {
          "internalType": "string",
          "name": "",
          "type": "string"
        }
      ],
      "stateMutability": "view",
      "type": "function",
      "constant": true
    },
    {
      "inputs": [],
      "name": "totalSupply",
      "outputs": [
        {
          "internalType": "uint256",
          "name": "",
          "type": "uint256"
        }
      ],
      "stateMutability": "view",
      "type": "function",
      "constant": true
    },
    {
      "inputs": [
        {
          "internalType": "address",
          "name": "recipient",
          "type": "address"
        },
        {
          "internalType": "uint256",
          "name": "amount",
          "type": "uint256"
        }
      ],
      "name": "transfer",
      "outputs": [
        {
          "internalType": "bool",
          "name": "",
          "type": "bool"
        }
      ],
      "stateMutability": "nonpayable",
      "type": "function"
    },
    {
      "inputs": [
        {
          "internalType": "address",
          "name": "sender",
          "type": "address"
        },
        {
          "internalType": "address",
          "name": "recipient",
          "type": "address"
        },
        {
          "internalType": "uint256",
          "name": "amount",
          "type": "uint256"
        }
      ],
      "name": "transferFrom",
      "outputs": [
        {
          "internalType": "bool",
          "name": "",
          "type": "bool"
        }
      ],
      "stateMutability": "nonpayable",
      "type": "function"
    },
    {
      "inputs": [],
      "name": "unpause",
      "outputs": [],
      "stateMutability": "nonpayable",
      "type": "function"
    },
    {
      "inputs": [],
      "name": "cap",
      "outputs": [
        {
          "internalType": "uint256",
          "name": "",
          "type": "uint256"
        }
      ],
      "stateMutability": "view",
      "type": "function",
      "constant": true
    },
    {
      "inputs": [
        {
          "internalType": "uint256",
          "name": "_newCap",
          "type": "uint256"
        }
      ],
      "name": "setCap",
      "outputs": [],
      "stateMutability": "nonpayable",
      "type": "function"
    }
  ],
  "bytecode": "0x60806040523480156200001157600080fd5b5060405162003d3938038062003d3983398181016040528101906200003791906200058e565b6040518060400160405280600881526020017f56697274756f73610000000000000000000000000000000000000000000000008152506040518060400160405280600381526020017f564941000000000000000000000000000000000000000000000000000000000081525081818160059080519060200190620000bd929190620004c7565b508060069080519060200190620000d6929190620004c7565b5050506000600760006101000a81548160ff021916908315150217905550620001186000801b6200010c6200023160201b60201c565b6200023960201b60201c565b620001597f9f2df0fed2c77648de5860a4cc508cd0818c85b8b8a1ab4ceeef8d981c8956a66200014d6200023160201b60201c565b6200023960201b60201c565b6200019a7f65d7a28e3265b37a6474929f336521b332c1681b933f6cb9f3376673440d862a6200018e6200023160201b60201c565b6200023960201b60201c565b5050620001dd7fa8947f963ef1b2aa9e5dffac5b9413100ff7c8038d7067d426bf5b8240870121620001d16200023160201b60201c565b6200023960201b60201c565b6000811162000223576040517f08c379a00000000000000000000000000000000000000000000000000000000081526004016200021a90620005e1565b60405180910390fd5b8060088190555050620006c6565b600033905090565b6200025082826200028160201b620010a81760201c565b6200027c81600160008581526020019081526020016000206200029760201b620010b61790919060201c565b505050565b620002938282620002cf60201b60201c565b5050565b6000620002c7836000018373ffffffffffffffffffffffffffffffffffffffff1660001b620003c060201b60201c565b905092915050565b620002e182826200043a60201b60201c565b620003bc57600160008084815260200190815260200160002060000160008373ffffffffffffffffffffffffffffffffffffffff1673ffffffffffffffffffffffffffffffffffffffff16815260200190815260200160002060006101000a81548160ff021916908315150217905550620003616200023160201b60201c565b73ffffffffffffffffffffffffffffffffffffffff168173ffffffffffffffffffffffffffffffffffffffff16837f2f8788117e7eff1d82e926ec794901d17c78024a50270940304540a733656f0d60405160405180910390a45b5050565b6000620003d48383620004a460201b60201c565b6200042f57826000018290806001815401808255809150506001900390600052602060002001600090919091909150558260000180549050836001016000848152602001908152602001600020819055506001905062000434565b600090505b92915050565b600080600084815260200190815260200160002060000160008373ffffffffffffffffffffffffffffffffffffffff1673ffffffffffffffffffffffffffffffffffffffff16815260200190815260200160002060009054906101000a900460ff16905092915050565b600080836001016000848152602001908152602001600020541415905092915050565b828054620004d5906200061e565b90600052602060002090601f016020900481019282620004f9576000855562000545565b82601f106200051457805160ff191683800117855562000545565b8280016001018555821562000545579182015b828111156200054457825182559160200191906001019062000527565b5b50905062000554919062000558565b5090565b5b808211156200057357600081600090555060010162000559565b5090565b6000815190506200058881620006ac565b92915050565b600060208284031215620005a157600080fd5b6000620005b18482850162000577565b91505092915050565b6000620005c960158362000603565b9150620005d68262000683565b602082019050919050565b60006020820190508181036000830152620005fc81620005ba565b9050919050565b600082825260208201905092915050565b6000819050919050565b600060028204905060018216806200063757607f821691505b602082108114156200064e576200064d62000654565b5b50919050565b7f4e487b7100000000000000000000000000000000000000000000000000000000600052602260045260246000fd5b7f45524332304361707065643a2063617020697320300000000000000000000000600082015250565b620006b78162000614565b8114620006c357600080fd5b50565b61366380620006d66000396000f3fe608060405234801561001057600080fd5b50600436106101e55760003560e01c80635c975abb1161010f578063a457c2d7116100a2578063d547741f11610071578063d547741f146105a6578063dd62ed3e146105c2578063e63ab1e9146105f2578063fb14411714610610576101e5565b8063a457c2d7146104f8578063a9059cbb14610528578063ca15c87314610558578063d539139314610588576101e5565b80639010d07c116100de5780639010d07c1461045c57806391d148541461048c57806395d89b41146104bc578063a217fddf146104da576101e5565b80635c975abb146103e857806370a082311461040657806379cc6790146104365780638456cb5914610452576101e5565b8063313ce567116101875780633f4ba83a116101565780633f4ba83a1461038a57806340c10f191461039457806342966c68146103b057806347786d37146103cc576101e5565b8063313ce56714610302578063355274ea1461032057806336568abe1461033e578063395093511461035a576101e5565b806318160ddd116101c357806318160ddd1461026857806323b872dd14610286578063248a9ca3146102b65780632f2ff15d146102e6576101e5565b806301ffc9a7146101ea57806306fdde031461021a578063095ea7b314610238575b600080fd5b61020460048036038101906101ff919061245d565b61062e565b60405161021191906128dc565b60405180910390f35b6102226106a8565b60405161022f9190612912565b60405180910390f35b610252600480360381019061024d9190612380565b61073a565b60405161025f91906128dc565b60405180910390f35b610270610758565b60405161027d9190612c74565b60405180910390f35b6102a0600480360381019061029b9190612331565b610762565b6040516102ad91906128dc565b60405180910390f35b6102d060048036038101906102cb91906123bc565b610863565b6040516102dd91906128f7565b60405180910390f35b61030060048036038101906102fb91906123e5565b610882565b005b61030a6108b6565b6040516103179190612c8f565b60405180910390f35b6103286108bf565b6040516103359190612c74565b60405180910390f35b610358600480360381019061035391906123e5565b6108c9565b005b610374600480360381019061036f9190612380565b6108fd565b60405161038191906128dc565b60405180910390f35b6103926109a9565b005b6103ae60048036038101906103a99190612380565b610a23565b005b6103ca60048036038101906103c59190612486565b610aa1565b005b6103e660048036038101906103e19190612486565b610ab5565b005b6103f0610bbb565b6040516103fd91906128dc565b60405180910390f35b610420600480360381019061041b91906122cc565b610bd2565b60405161042d9190612c74565b60405180910390f35b610450600480360381019061044b9190612380565b610c1b565b005b61045a610c9f565b005b61047660048036038101906104719190612421565b610d19565b60405161048391906128c1565b60405180910390f35b6104a660048036038101906104a191906123e5565b610d48565b6040516104b391906128dc565b60405180910390f35b6104c4610db2565b6040516104d19190612912565b60405180910390f35b6104e2610e44565b6040516104ef91906128f7565b60405180910390f35b610512600480360381019061050d9190612380565b610e4b565b60405161051f91906128dc565b60405180910390f35b610542600480360381019061053d9190612380565b610f3f565b60405161054f91906128dc565b60405180910390f35b610572600480360381019061056d91906123bc565b610f5d565b60405161057f9190612c74565b60405180910390f35b610590610f81565b60405161059d91906128f7565b60405180910390f35b6105c060048036038101906105bb91906123e5565b610fa5565b005b6105dc60048036038101906105d791906122f5565b610fd9565b6040516105e99190612c74565b60405180910390f35b6105fa611060565b60405161060791906128f7565b60405180910390f35b610618611084565b60405161062591906128f7565b60405180910390f35b60007f5a05180f000000000000000000000000000000000000000000000000000000007bffffffffffffffffffffffffffffffffffffffffffffffffffffffff1916827bffffffffffffffffffffffffffffffffffffffffffffffffffffffff191614806106a157506106a0826110e6565b5b9050919050565b6060600580546106b790612e0e565b80601f01602080910402602001604051908101604052809291908181526020018280546106e390612e0e565b80156107305780601f1061070557610100808354040283529160200191610730565b820191906000526020600020905b81548152906001019060200180831161071357829003601f168201915b5050505050905090565b600061074e610747611160565b8484611168565b6001905092915050565b6000600454905090565b600061076f848484611333565b6000600360008673ffffffffffffffffffffffffffffffffffffffff1673ffffffffffffffffffffffffffffffffffffffff16815260200190815260200160002060006107ba611160565b73ffffffffffffffffffffffffffffffffffffffff1673ffffffffffffffffffffffffffffffffffffffff1681526020019081526020016000205490508281101561083a576040517f08c379a000000000000000000000000000000000000000000000000000000000815260040161083190612ab4565b60405180910390fd5b61085785610846611160565b85846108529190612d1c565b611168565b60019150509392505050565b6000806000838152602001908152602001600020600101549050919050565b61088c82826115b5565b6108b181600160008581526020019081526020016000206110b690919063ffffffff16565b505050565b60006012905090565b6000600854905090565b6108d3828261161b565b6108f8816001600085815260200190815260200160002061169e90919063ffffffff16565b505050565b600061099f61090a611160565b848460036000610918611160565b73ffffffffffffffffffffffffffffffffffffffff1673ffffffffffffffffffffffffffffffffffffffff16815260200190815260200160002060008873ffffffffffffffffffffffffffffffffffffffff1673ffffffffffffffffffffffffffffffffffffffff1681526020019081526020016000205461099a9190612cc6565b611168565b6001905092915050565b6109da7f65d7a28e3265b37a6474929f336521b332c1681b933f6cb9f3376673440d862a6109d5611160565b610d48565b610a19576040517f08c379a0000000000000000000000000000000000000000000000000000000008152600401610a10906129d4565b60405180910390fd5b610a216116ce565b565b610a547f9f2df0fed2c77648de5860a4cc508cd0818c85b8b8a1ab4ceeef8d981c8956a6610a4f611160565b610d48565b610a93576040517f08c379a0000000000000000000000000000000000000000000000000000000008152600401610a8a90612ad4565b60405180910390fd5b610a9d8282611770565b5050565b610ab2610aac611160565b826117da565b50565b610ae67fa8947f963ef1b2aa9e5dffac5b9413100ff7c8038d7067d426bf5b8240870121610ae1611160565b610d48565b610b25576040517f08c379a0000000000000000000000000000000000000000000000000000000008152600401610b1c90612a54565b60405180910390fd5b610b2d610758565b8111610b6e576040517f08c379a0000000000000000000000000000000000000000000000000000000008152600401610b6590612a14565b60405180910390fd5b60008111610bb1576040517f08c379a0000000000000000000000000000000000000000000000000000000008152600401610ba890612bd4565b60405180910390fd5b8060088190555050565b6000600760009054906101000a900460ff16905090565b6000600260008373ffffffffffffffffffffffffffffffffffffffff1673ffffffffffffffffffffffffffffffffffffffff168152602001908152602001600020549050919050565b6000610c2e83610c29611160565b610fd9565b905081811015610c73576040517f08c379a0000000000000000000000000000000000000000000000000000000008152600401610c6a90612b14565b60405180910390fd5b610c9083610c7f611160565b8484610c8b9190612d1c565b611168565b610c9a83836117da565b505050565b610cd07f65d7a28e3265b37a6474929f336521b332c1681b933f6cb9f3376673440d862a610ccb611160565b610d48565b610d0f576040517f08c379a0000000000000000000000000000000000000000000000000000000008152600401610d0690612bb4565b60405180910390fd5b610d176119b0565b565b6000610d408260016000868152602001908152602001600020611a5390919063ffffffff16565b905092915050565b600080600084815260200190815260200160002060000160008373ffffffffffffffffffffffffffffffffffffffff1673ffffffffffffffffffffffffffffffffffffffff16815260200190815260200160002060009054906101000a900460ff16905092915050565b606060068054610dc190612e0e565b80601f0160208091040260200160405190810160405280929190818152602001828054610ded90612e0e565b8015610e3a5780601f10610e0f57610100808354040283529160200191610e3a565b820191906000526020600020905b815481529060010190602001808311610e1d57829003601f168201915b5050505050905090565b6000801b81565b60008060036000610e5a611160565b73ffffffffffffffffffffffffffffffffffffffff1673ffffffffffffffffffffffffffffffffffffffff16815260200190815260200160002060008573ffffffffffffffffffffffffffffffffffffffff1673ffffffffffffffffffffffffffffffffffffffff16815260200190815260200160002054905082811015610f17576040517f08c379a0000000000000000000000000000000000000000000000000000000008152600401610f0e90612bf4565b60405180910390fd5b610f34610f22611160565b858584610f2f9190612d1c565b611168565b600191505092915050565b6000610f53610f4c611160565b8484611333565b6001905092915050565b6000610f7a60016000848152602001908152602001600020611a6d565b9050919050565b7f9f2df0fed2c77648de5860a4cc508cd0818c85b8b8a1ab4ceeef8d981c8956a681565b610faf8282611a82565b610fd4816001600085815260200190815260200160002061169e90919063ffffffff16565b505050565b6000600360008473ffffffffffffffffffffffffffffffffffffffff1673ffffffffffffffffffffffffffffffffffffffff16815260200190815260200160002060008373ffffffffffffffffffffffffffffffffffffffff1673ffffffffffffffffffffffffffffffffffffffff16815260200190815260200160002054905092915050565b7f65d7a28e3265b37a6474929f336521b332c1681b933f6cb9f3376673440d862a81565b7fa8947f963ef1b2aa9e5dffac5b9413100ff7c8038d7067d426bf5b824087012181565b6110b28282611ae8565b5050565b60006110de836000018373ffffffffffffffffffffffffffffffffffffffff1660001b611bc8565b905092915050565b60007f7965db0b000000000000000000000000000000000000000000000000000000007bffffffffffffffffffffffffffffffffffffffffffffffffffffffff1916827bffffffffffffffffffffffffffffffffffffffffffffffffffffffff19161480611159575061115882611c38565b5b9050919050565b600033905090565b600073ffffffffffffffffffffffffffffffffffffffff168373ffffffffffffffffffffffffffffffffffffffff1614156111d8576040517f08c379a00000000000000000000000000000000000000000000000000000000081526004016111cf90612b94565b60405180910390fd5b600073ffffffffffffffffffffffffffffffffffffffff168273ffffffffffffffffffffffffffffffffffffffff161415611248576040517f08c379a000000000000000000000000000000000000000000000000000000000815260040161123f906129f4565b60405180910390fd5b80600360008573ffffffffffffffffffffffffffffffffffffffff1673ffffffffffffffffffffffffffffffffffffffff16815260200190815260200160002060008473ffffffffffffffffffffffffffffffffffffffff1673ffffffffffffffffffffffffffffffffffffffff168152602001908152602001600020819055508173ffffffffffffffffffffffffffffffffffffffff168373ffffffffffffffffffffffffffffffffffffffff167f8c5be1e5ebec7d5bd14f71427d1e84f3dd0314c0f7b2291e5b200ac8c7c3b925836040516113269190612c74565b60405180910390a3505050565b600073ffffffffffffffffffffffffffffffffffffffff168373ffffffffffffffffffffffffffffffffffffffff1614156113a3576040517f08c379a000000000000000000000000000000000000000000000000000000000815260040161139a90612b54565b60405180910390fd5b600073ffffffffffffffffffffffffffffffffffffffff168273ffffffffffffffffffffffffffffffffffffffff161415611413576040517f08c379a000000000000000000000000000000000000000000000000000000000815260040161140a90612954565b60405180910390fd5b61141e838383611ca2565b6000600260008573ffffffffffffffffffffffffffffffffffffffff1673ffffffffffffffffffffffffffffffffffffffff168152602001908152602001600020549050818110156114a5576040517f08c379a000000000000000000000000000000000000000000000000000000000815260040161149c90612a34565b60405180910390fd5b81816114b19190612d1c565b600260008673ffffffffffffffffffffffffffffffffffffffff1673ffffffffffffffffffffffffffffffffffffffff1681526020019081526020016000208190555081600260008573ffffffffffffffffffffffffffffffffffffffff1673ffffffffffffffffffffffffffffffffffffffff16815260200190815260200160002060008282546115439190612cc6565b925050819055508273ffffffffffffffffffffffffffffffffffffffff168473ffffffffffffffffffffffffffffffffffffffff167fddf252ad1be2c89b69c2b068fc378daa952ba7f163c4a11628f55a4df523b3ef846040516115a79190612c74565b60405180910390a350505050565b6115ce6115c183610863565b6115c9611160565b610d48565b61160d576040517f08c379a000000000000000000000000000000000000000000000000000000000815260040161160490612974565b60405180910390fd5b6116178282611ae8565b5050565b611623611160565b73ffffffffffffffffffffffffffffffffffffffff168173ffffffffffffffffffffffffffffffffffffffff1614611690576040517f08c379a000000000000000000000000000000000000000000000000000000000815260040161168790612c14565b60405180910390fd5b61169a8282611d7d565b5050565b60006116c6836000018373ffffffffffffffffffffffffffffffffffffffff1660001b611e5e565b905092915050565b6116d6610bbb565b611715576040517f08c379a000000000000000000000000000000000000000000000000000000000815260040161170c90612994565b60405180910390fd5b6000600760006101000a81548160ff0219169083151502179055507f5db9ee0a495bf2e6ff9c91a7834c1ba4fdd244a5e8aa4e537bd38aeae4b073aa611759611160565b60405161176691906128c1565b60405180910390a1565b6117786108bf565b81611781610758565b61178b9190612cc6565b11156117cc576040517f08c379a00000000000000000000000000000000000000000000000000000000081526004016117c390612b74565b60405180910390fd5b6117d68282611fe8565b5050565b600073ffffffffffffffffffffffffffffffffffffffff168273ffffffffffffffffffffffffffffffffffffffff16141561184a576040517f08c379a000000000000000000000000000000000000000000000000000000000815260040161184190612b34565b60405180910390fd5b61185682600083611ca2565b6000600260008473ffffffffffffffffffffffffffffffffffffffff1673ffffffffffffffffffffffffffffffffffffffff168152602001908152602001600020549050818110156118dd576040517f08c379a00000000000000000000000000000000000000000000000000000000081526004016118d4906129b4565b60405180910390fd5b81816118e99190612d1c565b600260008573ffffffffffffffffffffffffffffffffffffffff1673ffffffffffffffffffffffffffffffffffffffff16815260200190815260200160002081905550816004600082825461193e9190612d1c565b92505081905550600073ffffffffffffffffffffffffffffffffffffffff168373ffffffffffffffffffffffffffffffffffffffff167fddf252ad1be2c89b69c2b068fc378daa952ba7f163c4a11628f55a4df523b3ef846040516119a39190612c74565b60405180910390a3505050565b6119b8610bbb565b156119f8576040517f08c379a00000000000000000000000000000000000000000000000000000000081526004016119ef90612a94565b60405180910390fd5b6001600760006101000a81548160ff0219169083151502179055507f62e78cea01bee320cd4e420270b5ea74000d11b0c9f74754ebdbfc544b05a258611a3c611160565b604051611a4991906128c1565b60405180910390a1565b6000611a62836000018361213d565b60001c905092915050565b6000611a7b826000016121d7565b9050919050565b611a9b611a8e83610863565b611a96611160565b610d48565b611ada576040517f08c379a0000000000000000000000000000000000000000000000000000000008152600401611ad190612a74565b60405180910390fd5b611ae48282611d7d565b5050565b611af28282610d48565b611bc457600160008084815260200190815260200160002060000160008373ffffffffffffffffffffffffffffffffffffffff1673ffffffffffffffffffffffffffffffffffffffff16815260200190815260200160002060006101000a81548160ff021916908315150217905550611b69611160565b73ffffffffffffffffffffffffffffffffffffffff168173ffffffffffffffffffffffffffffffffffffffff16837f2f8788117e7eff1d82e926ec794901d17c78024a50270940304540a733656f0d60405160405180910390a45b5050565b6000611bd483836121e8565b611c2d578260000182908060018154018082558091505060019003906000526020600020016000909190919091505582600001805490508360010160008481526020019081526020016000208190555060019050611c32565b600090505b92915050565b60007f01ffc9a7000000000000000000000000000000000000000000000000000000007bffffffffffffffffffffffffffffffffffffffffffffffffffffffff1916827bffffffffffffffffffffffffffffffffffffffffffffffffffffffff1916149050919050565b611cad83838361220b565b600073ffffffffffffffffffffffffffffffffffffffff168373ffffffffffffffffffffffffffffffffffffffff1614611d1c576040517f08c379a0000000000000000000000000000000000000000000000000000000008152600401611d1390612af4565b60405180910390fd5b611d246108bf565b81611d2d610758565b611d379190612cc6565b1115611d78576040517f08c379a0000000000000000000000000000000000000000000000000000000008152600401611d6f90612b74565b60405180910390fd5b505050565b611d878282610d48565b15611e5a57600080600084815260200190815260200160002060000160008373ffffffffffffffffffffffffffffffffffffffff1673ffffffffffffffffffffffffffffffffffffffff16815260200190815260200160002060006101000a81548160ff021916908315150217905550611dff611160565b73ffffffffffffffffffffffffffffffffffffffff168173ffffffffffffffffffffffffffffffffffffffff16837ff6391f5c32d9c69d2a47ea670b442974b53935d1edc7fd64eb21e047a839171b60405160405180910390a45b5050565b60008083600101600084815260200190815260200160002054905060008114611fdc576000600182611e909190612d1c565b9050600060018660000180549050611ea89190612d1c565b90506000866000018281548110611ee8577f4e487b7100000000000000000000000000000000000000000000000000000000600052603260045260246000fd5b9060005260206000200154905080876000018481548110611f32577f4e487b7100000000000000000000000000000000000000000000000000000000600052603260045260246000fd5b9060005260206000200181905550600183611f4d9190612cc6565b8760010160008381526020019081526020016000208190555086600001805480611fa0577f4e487b7100000000000000000000000000000000000000000000000000000000600052603160045260246000fd5b60019003818190600052602060002001600090559055866001016000878152602001908152602001600020600090556001945050505050611fe2565b60009150505b92915050565b600073ffffffffffffffffffffffffffffffffffffffff168273ffffffffffffffffffffffffffffffffffffffff161415612058576040517f08c379a000000000000000000000000000000000000000000000000000000000815260040161204f90612c34565b60405180910390fd5b61206460008383611ca2565b80600460008282546120769190612cc6565b9250508190555080600260008473ffffffffffffffffffffffffffffffffffffffff1673ffffffffffffffffffffffffffffffffffffffff16815260200190815260200160002060008282546120cc9190612cc6565b925050819055508173ffffffffffffffffffffffffffffffffffffffff16600073ffffffffffffffffffffffffffffffffffffffff167fddf252ad1be2c89b69c2b068fc378daa952ba7f163c4a11628f55a4df523b3ef836040516121319190612c74565b60405180910390a35050565b600081836000018054905011612188576040517f08c379a000000000000000000000000000000000000000000000000000000000815260040161217f90612934565b60405180910390fd5b8260000182815481106121c4577f4e487b7100000000000000000000000000000000000000000000000000000000600052603260045260246000fd5b9060005260206000200154905092915050565b600081600001805490509050919050565b600080836001016000848152602001908152602001600020541415905092915050565b61221683838361221b565b505050565b612226838383612273565b61222e610bbb565b1561226e576040517f08c379a000000000000000000000000000000000000000000000000000000000815260040161226590612c54565b60405180910390fd5b505050565b505050565b600081359050612287816135d1565b92915050565b60008135905061229c816135e8565b92915050565b6000813590506122b1816135ff565b92915050565b6000813590506122c681613616565b92915050565b6000602082840312156122de57600080fd5b60006122ec84828501612278565b91505092915050565b6000806040838503121561230857600080fd5b600061231685828601612278565b925050602061232785828601612278565b9150509250929050565b60008060006060848603121561234657600080fd5b600061235486828701612278565b935050602061236586828701612278565b9250506040612376868287016122b7565b9150509250925092565b6000806040838503121561239357600080fd5b60006123a185828601612278565b92505060206123b2858286016122b7565b9150509250929050565b6000602082840312156123ce57600080fd5b60006123dc8482850161228d565b91505092915050565b600080604083850312156123f857600080fd5b60006124068582860161228d565b925050602061241785828601612278565b9150509250929050565b6000806040838503121561243457600080fd5b60006124428582860161228d565b9250506020612453858286016122b7565b9150509250929050565b60006020828403121561246f57600080fd5b600061247d848285016122a2565b91505092915050565b60006020828403121561249857600080fd5b60006124a6848285016122b7565b91505092915050565b6124b881612d50565b82525050565b6124c781612d62565b82525050565b6124d681612d6e565b82525050565b60006124e782612caa565b6124f18185612cb5565b9350612501818560208601612ddb565b61250a81612e9e565b840191505092915050565b6000612522602283612cb5565b915061252d82612eaf565b604082019050919050565b6000612545602383612cb5565b915061255082612efe565b604082019050919050565b6000612568602f83612cb5565b915061257382612f4d565b604082019050919050565b600061258b601483612cb5565b915061259682612f9c565b602082019050919050565b60006125ae602283612cb5565b91506125b982612fc5565b604082019050919050565b60006125d1603983612cb5565b91506125dc82613014565b604082019050919050565b60006125f4602283612cb5565b91506125ff82613063565b604082019050919050565b6000612617602883612cb5565b9150612622826130b2565b604082019050919050565b600061263a602683612cb5565b915061264582613101565b604082019050919050565b600061265d604083612cb5565b915061266882613150565b604082019050919050565b6000612680603083612cb5565b915061268b8261319f565b604082019050919050565b60006126a3601083612cb5565b91506126ae826131ee565b602082019050919050565b60006126c6602883612cb5565b91506126d182613217565b604082019050919050565b60006126e9603683612cb5565b91506126f482613266565b604082019050919050565b600061270c601a83612cb5565b9150612717826132b5565b602082019050919050565b600061272f602483612cb5565b915061273a826132de565b604082019050919050565b6000612752602183612cb5565b915061275d8261332d565b604082019050919050565b6000612775602583612cb5565b91506127808261337c565b604082019050919050565b6000612798601983612cb5565b91506127a3826133cb565b602082019050919050565b60006127bb602483612cb5565b91506127c6826133f4565b604082019050919050565b60006127de603783612cb5565b91506127e982613443565b604082019050919050565b6000612801600e83612cb5565b915061280c82613492565b602082019050919050565b6000612824602583612cb5565b915061282f826134bb565b604082019050919050565b6000612847602f83612cb5565b91506128528261350a565b604082019050919050565b600061286a601f83612cb5565b915061287582613559565b602082019050919050565b600061288d602a83612cb5565b915061289882613582565b604082019050919050565b6128ac81612dc4565b82525050565b6128bb81612dce565b82525050565b60006020820190506128d660008301846124af565b92915050565b60006020820190506128f160008301846124be565b92915050565b600060208201905061290c60008301846124cd565b92915050565b6000602082019050818103600083015261292c81846124dc565b905092915050565b6000602082019050818103600083015261294d81612515565b9050919050565b6000602082019050818103600083015261296d81612538565b9050919050565b6000602082019050818103600083015261298d8161255b565b9050919050565b600060208201905081810360008301526129ad8161257e565b9050919050565b600060208201905081810360008301526129cd816125a1565b9050919050565b600060208201905081810360008301526129ed816125c4565b9050919050565b60006020820190508181036000830152612a0d816125e7565b9050919050565b60006020820190508181036000830152612a2d8161260a565b9050919050565b60006020820190508181036000830152612a4d8161262d565b9050919050565b60006020820190508181036000830152612a6d81612650565b9050919050565b60006020820190508181036000830152612a8d81612673565b9050919050565b60006020820190508181036000830152612aad81612696565b9050919050565b60006020820190508181036000830152612acd816126b9565b9050919050565b60006020820190508181036000830152612aed816126dc565b9050919050565b60006020820190508181036000830152612b0d816126ff565b9050919050565b60006020820190508181036000830152612b2d81612722565b9050919050565b60006020820190508181036000830152612b4d81612745565b9050919050565b60006020820190508181036000830152612b6d81612768565b9050919050565b60006020820190508181036000830152612b8d8161278b565b9050919050565b60006020820190508181036000830152612bad816127ae565b9050919050565b60006020820190508181036000830152612bcd816127d1565b9050919050565b60006020820190508181036000830152612bed816127f4565b9050919050565b60006020820190508181036000830152612c0d81612817565b9050919050565b60006020820190508181036000830152612c2d8161283a565b9050919050565b60006020820190508181036000830152612c4d8161285d565b9050919050565b60006020820190508181036000830152612c6d81612880565b9050919050565b6000602082019050612c8960008301846128a3565b92915050565b6000602082019050612ca460008301846128b2565b92915050565b600081519050919050565b600082825260208201905092915050565b6000612cd182612dc4565b9150612cdc83612dc4565b9250827fffffffffffffffffffffffffffffffffffffffffffffffffffffffffffffffff03821115612d1157612d10612e40565b5b828201905092915050565b6000612d2782612dc4565b9150612d3283612dc4565b925082821015612d4557612d44612e40565b5b828203905092915050565b6000612d5b82612da4565b9050919050565b60008115159050919050565b6000819050919050565b60007fffffffff0000000000000000000000000000000000000000000000000000000082169050919050565b600073ffffffffffffffffffffffffffffffffffffffff82169050919050565b6000819050919050565b600060ff82169050919050565b60005b83811015612df9578082015181840152602081019050612dde565b83811115612e08576000848401525b50505050565b60006002820490506001821680612e2657607f821691505b60208210811415612e3a57612e39612e6f565b5b50919050565b7f4e487b7100000000000000000000000000000000000000000000000000000000600052601160045260246000fd5b7f4e487b7100000000000000000000000000000000000000000000000000000000600052602260045260246000fd5b6000601f19601f8301169050919050565b7f456e756d657261626c655365743a20696e646578206f7574206f6620626f756e60008201527f6473000000000000000000000000000000000000000000000000000000000000602082015250565b7f45524332303a207472616e7366657220746f20746865207a65726f206164647260008201527f6573730000000000000000000000000000000000000000000000000000000000602082015250565b7f416363657373436f6e74726f6c3a2073656e646572206d75737420626520616e60008201527f2061646d696e20746f206772616e740000000000000000000000000000000000602082015250565b7f5061757361626c653a206e6f7420706175736564000000000000000000000000600082015250565b7f45524332303a206275726e20616d6f756e7420657863656564732062616c616e60008201527f6365000000000000000000000000000000000000000000000000000000000000602082015250565b7f45524332305072657365744d696e7465725061757365723a206d75737420686160008201527f76652070617573657220726f6c6520746f20756e706175736500000000000000602082015250565b7f45524332303a20617070726f766520746f20746865207a65726f20616464726560008201527f7373000000000000000000000000000000000000000000000000000000000000602082015250565b7f4e6577204361702073686f756c64206265206d6f7265207468616e20546f746160008201527f6c20537570706c79000000000000000000000000000000000000000000000000602082015250565b7f45524332303a207472616e7366657220616d6f756e742065786365656473206260008201527f616c616e63650000000000000000000000000000000000000000000000000000602082015250565b7f45524332305072657365744d696e7465725061757365723a206d75737420686160008201527f7665206361702073657474657220726f6c6520746f206368616e676520636170602082015250565b7f416363657373436f6e74726f6c3a2073656e646572206d75737420626520616e60008201527f2061646d696e20746f207265766f6b6500000000000000000000000000000000602082015250565b7f5061757361626c653a2070617573656400000000000000000000000000000000600082015250565b7f45524332303a207472616e7366657220616d6f756e742065786365656473206160008201527f6c6c6f77616e6365000000000000000000000000000000000000000000000000602082015250565b7f45524332305072657365744d696e7465725061757365723a206d75737420686160008201527f7665206d696e74657220726f6c6520746f206d696e7400000000000000000000602082015250565b7f4f6e6c792041646d696e2063616e206d696e7420546f6b656e73000000000000600082015250565b7f45524332303a206275726e20616d6f756e74206578636565647320616c6c6f7760008201527f616e636500000000000000000000000000000000000000000000000000000000602082015250565b7f45524332303a206275726e2066726f6d20746865207a65726f2061646472657360008201527f7300000000000000000000000000000000000000000000000000000000000000602082015250565b7f45524332303a207472616e736665722066726f6d20746865207a65726f20616460008201527f6472657373000000000000000000000000000000000000000000000000000000602082015250565b7f45524332304361707065643a2063617020657863656564656400000000000000600082015250565b7f45524332303a20617070726f76652066726f6d20746865207a65726f2061646460008201527f7265737300000000000000000000000000000000000000000000000000000000602082015250565b7f45524332305072657365744d696e7465725061757365723a206d75737420686160008201527f76652070617573657220726f6c6520746f207061757365000000000000000000602082015250565b7f546f6b656e204361702069732030000000000000000000000000000000000000600082015250565b7f45524332303a2064656372656173656420616c6c6f77616e63652062656c6f7760008201527f207a65726f000000000000000000000000000000000000000000000000000000602082015250565b7f416363657373436f6e74726f6c3a2063616e206f6e6c792072656e6f756e636560008201527f20726f6c657320666f722073656c660000000000000000000000000000000000602082015250565b7f45524332303a206d696e7420746f20746865207a65726f206164647265737300600082015250565b7f45524332305061757361626c653a20746f6b656e207472616e7366657220776860008201527f696c652070617573656400000000000000000000000000000000000000000000602082015250565b6135da81612d50565b81146135e557600080fd5b50565b6135f181612d6e565b81146135fc57600080fd5b50565b61360881612d78565b811461361357600080fd5b50565b61361f81612dc4565b811461362a57600080fd5b5056fea26469706673582212205281f833d3d17333bbe184cba96ae00dde1084f35efa91548b2b7d28e4a0aa5964736f6c63430008030033",
  "immutableReferences": {},
  "source": "// SPDX-License-Identifier: UNLICENSED\r\npragma solidity ^0.8.0;\r\n\r\nimport \"../node_modules/@openzeppelin/contracts/token/ERC20/presets/ERC20PresetMinterPauser.sol\";\r\n\r\ncontract MPCToken is ERC20PresetMinterPauser {\r\n//added a cap setter role\r\n    bytes32 public constant CAPSETTER_ROLE = keccak256(\"CAPSETTER_ROLE\");\r\n    uint256 private _cap;\r\n\r\n    constructor(uint256 cap_) ERC20PresetMinterPauser(\"Virtuosa\", \"VIA\"){\r\n        _setupRole(CAPSETTER_ROLE, _msgSender());\r\n        \r\n        require(cap_ > 0, \"ERC20Capped: cap is 0\");\r\n        _cap = cap_;\r\n    }\r\n    \r\n    function cap() public view virtual returns (uint256) {\r\n        return _cap;\r\n    }\r\n\r\n    function _mint(address account, uint256 amount) internal virtual override {\r\n        require(ERC20.totalSupply() + amount <= cap(), \"ERC20Capped: cap exceeded\");\r\n        super._mint(account, amount);\r\n    }\r\n//modified this function below\r\n    function _beforeTokenTransfer(address from, address to, uint256 amount) internal virtual override(ERC20PresetMinterPauser) {\r\n        super._beforeTokenTransfer(from, to, amount);\r\n        require(from == address(0), \"Only Admin can mint Tokens\");\r\n        require(ERC20.totalSupply() + amount <= cap(), \"ERC20Capped: cap exceeded\");      \r\n    }\r\n//added a new function which only allows cap setter to change token cap\r\n    function setCap(uint _newCap) public {\r\n        require(hasRole(CAPSETTER_ROLE, _msgSender()), \"ERC20PresetMinterPauser: must have cap setter role to change cap\");\r\n        require(_newCap > ERC20.totalSupply(),\"New Cap should be more than Total Supply\");\r\n        require(_newCap > 0, \"Token Cap is 0\");\r\n        _cap = _newCap;\r\n    }\r\n}",
  "sourcePath": "C:/Users/Xyz Fiegalan/OneDrive/Desktop/Ivan On Tech Blockchain Academy/Programming/Truffle/MyERC20Token/contracts/MinterPauserCapped.sol",
  "compiler": {
    "name": "solc",
    "version": "0.8.3+commit.8d00100c.Emscripten.clang"
  },
  "schemaVersion": "3.3.4",
  "updatedAt": "2021-04-10T09:34:02.592Z",
  "networkType": "ethereum",
  "devdoc": {
    "kind": "dev",
    "methods": {
      "allowance(address,address)": {
        "details": "See {IERC20-allowance}."
      },
      "approve(address,uint256)": {
        "details": "See {IERC20-approve}. Requirements: - `spender` cannot be the zero address."
      },
      "balanceOf(address)": {
        "details": "See {IERC20-balanceOf}."
      },
      "burn(uint256)": {
        "details": "Destroys `amount` tokens from the caller. See {ERC20-_burn}."
      },
      "burnFrom(address,uint256)": {
        "details": "Destroys `amount` tokens from `account`, deducting from the caller's allowance. See {ERC20-_burn} and {ERC20-allowance}. Requirements: - the caller must have allowance for ``accounts``'s tokens of at least `amount`."
      },
      "decimals()": {
        "details": "Returns the number of decimals used to get its user representation. For example, if `decimals` equals `2`, a balance of `505` tokens should be displayed to a user as `5,05` (`505 / 10 ** 2`). Tokens usually opt for a value of 18, imitating the relationship between Ether and Wei. This is the value {ERC20} uses, unless this function is overloaded; NOTE: This information is only used for _display_ purposes: it in no way affects any of the arithmetic of the contract, including {IERC20-balanceOf} and {IERC20-transfer}."
      },
      "decreaseAllowance(address,uint256)": {
        "details": "Atomically decreases the allowance granted to `spender` by the caller. This is an alternative to {approve} that can be used as a mitigation for problems described in {IERC20-approve}. Emits an {Approval} event indicating the updated allowance. Requirements: - `spender` cannot be the zero address. - `spender` must have allowance for the caller of at least `subtractedValue`."
      },
      "getRoleAdmin(bytes32)": {
        "details": "Returns the admin role that controls `role`. See {grantRole} and {revokeRole}. To change a role's admin, use {_setRoleAdmin}."
      },
      "getRoleMember(bytes32,uint256)": {
        "details": "Returns one of the accounts that have `role`. `index` must be a value between 0 and {getRoleMemberCount}, non-inclusive. Role bearers are not sorted in any particular way, and their ordering may change at any point. WARNING: When using {getRoleMember} and {getRoleMemberCount}, make sure you perform all queries on the same block. See the following https://forum.openzeppelin.com/t/iterating-over-elements-on-enumerableset-in-openzeppelin-contracts/2296[forum post] for more information."
      },
      "getRoleMemberCount(bytes32)": {
        "details": "Returns the number of accounts that have `role`. Can be used together with {getRoleMember} to enumerate all bearers of a role."
      },
      "grantRole(bytes32,address)": {
        "details": "Overload {grantRole} to track enumerable memberships"
      },
      "hasRole(bytes32,address)": {
        "details": "Returns `true` if `account` has been granted `role`."
      },
      "increaseAllowance(address,uint256)": {
        "details": "Atomically increases the allowance granted to `spender` by the caller. This is an alternative to {approve} that can be used as a mitigation for problems described in {IERC20-approve}. Emits an {Approval} event indicating the updated allowance. Requirements: - `spender` cannot be the zero address."
      },
      "mint(address,uint256)": {
        "details": "Creates `amount` new tokens for `to`. See {ERC20-_mint}. Requirements: - the caller must have the `MINTER_ROLE`."
      },
      "name()": {
        "details": "Returns the name of the token."
      },
      "pause()": {
        "details": "Pauses all token transfers. See {ERC20Pausable} and {Pausable-_pause}. Requirements: - the caller must have the `PAUSER_ROLE`."
      },
      "paused()": {
        "details": "Returns true if the contract is paused, and false otherwise."
      },
      "renounceRole(bytes32,address)": {
        "details": "Overload {renounceRole} to track enumerable memberships"
      },
      "revokeRole(bytes32,address)": {
        "details": "Overload {revokeRole} to track enumerable memberships"
      },
      "supportsInterface(bytes4)": {
        "details": "See {IERC165-supportsInterface}."
      },
      "symbol()": {
        "details": "Returns the symbol of the token, usually a shorter version of the name."
      },
      "totalSupply()": {
        "details": "See {IERC20-totalSupply}."
      },
      "transfer(address,uint256)": {
        "details": "See {IERC20-transfer}. Requirements: - `recipient` cannot be the zero address. - the caller must have a balance of at least `amount`."
      },
      "transferFrom(address,address,uint256)": {
        "details": "See {IERC20-transferFrom}. Emits an {Approval} event indicating the updated allowance. This is not required by the EIP. See the note at the beginning of {ERC20}. Requirements: - `sender` and `recipient` cannot be the zero address. - `sender` must have a balance of at least `amount`. - the caller must have allowance for ``sender``'s tokens of at least `amount`."
      },
      "unpause()": {
        "details": "Unpauses all token transfers. See {ERC20Pausable} and {Pausable-_unpause}. Requirements: - the caller must have the `PAUSER_ROLE`."
      }
    },
    "version": 1
  },
  "userdoc": {
    "kind": "user",
    "methods": {},
    "version": 1
  }
}